:100000000C9436000C945E000C945E000C945E0020
:100010000C945E000C945E000C945E000C945E00E8
:100020000C945E000C945E000C945E000C945E00D8
:100030000C945E000C945E000C945E000C945E00C8
:100040000C94F2090C945E000C94620A0C943C0A25
:100050000C945E000C945E000C945E000C945E00A8
:100060000C945E000C945E00940A810B11241FBE58
:10007000CFEFD8E0DEBFCDBF22E0AAE3B2E001C0FF
:100080001D92AB3EB207E1F712E0A0E0B1E0E2E87A
:10009000FBE102C005900D92AA33B107D9F710E039
:1000A000C5E3D0E004C02197FE010E94BC0BC4331D
:1000B000D107C9F70E94C60A0C94B40D0C94000035
:1000C000CF93DF93CDB7DEB729970FB6F894DEBF95
:1000D0000FBECDBFFC01BE016F5F7F4F9E01265F4B
:1000E0003F4FDC014C91DB014C93DC0111964C91AC
:1000F000DB0111964C93DC0112964C91DB011296B8
:100100004C9303966D5F7F4F6217730751F7898198
:1001100082838A8185838B8180878C8181838D8195
:1001200084838E8187838F8180838885838389857B
:10013000868329960FB6F894DEBF0FBECDBFDF9140
:10014000CF910895FC01248135816217730720F453
:1001500080819181009729F410923A028AE392E01B
:100160000895860F971F0895AF92BF92CF92DF92A6
:10017000EF92FF920F931F93CF93DF936C017B015C
:100180008B01040F151FEB015E01AE18BF08C017ED
:10019000D10759F06991D601ED91FC910190F08160
:1001A000E02DC6010995892B79F7C501DF91CF9123
:1001B0001F910F91FF90EF90DF90CF90BF90AF9085
:1001C0000895FC01538D448D252F30E0842F90E05D
:1001D000821B930B541710F0CF9608950197089542
:1001E000FC01918D828D981761F0A28DAE0FBF2F0B
:1001F000B11D5D968C91928D9F5F9F73928F90E061
:1002000008958FEF9FEF0895FC01918D828D9817CF
:1002100031F0828DE80FF11D858D90E008958FEF0C
:100220009FEF0895FC01918D228D892F90E0805CD5
:100230009F4F821B91098F739927089584E492E060
:100240000E94120121E0892B09F420E0822F0895F9
:1002500080E090E0892B29F00E941E0181110C940E
:1002600000000895FC01A48DA80FB92FB11DA35A59
:10027000BF4F2C91848D90E001968F739927848FC6
:10028000A689B7892C93A089B1898C9183708064E9
:100290008C93938D848D981306C00288F389E02D8A
:1002A00080818F7D80830895EF92FF920F931F933B
:1002B000CF93DF93EC0181E0888F9B8D8C8D981319
:1002C0001AC0E889F989808185FF15C09FB7F89425
:1002D000EE89FF896083E889F98980818370806471
:1002E00080839FBF81E090E0DF91CF911F910F91BC
:1002F000FF90EF900895F62E0B8D10E00F5F1F4FCB
:100300000F731127E02E8C8D8E110CC00FB607FCD9
:10031000FACFE889F989808185FFF5CFCE010E9467
:100320003201F1CFEB8DEC0FFD2FF11DE35AFF4FA2
:10033000F0829FB7F8940B8FEA89FB8980818062F5
:10034000CFCFCF93DF93EC01888D8823B9F0AA89B2
:10035000BB89E889F9898C9185FD03C0808186FD80
:100360000DC00FB607FCF7CF8C9185FFF2CF8081CF
:1003700085FFEDCFCE010E943201E9CFDF91CF9111
:100380000895FC0187E7808381838283838384834C
:10039000858386838783808789E7818782878387B0
:1003A0008487858786878787808B818B82E6828B8F
:1003B000838B848B858B868B878B808F818F828FBD
:1003C00087E6838F848F858F868F878F80A381A315
:1003D00082A383A382E784A385A386A387A380A7A0
:1003E00081A782A783A784A78FE685A786A787A76B
:1003F00080AB81AB82AB83AB84AB85AB08950F93AD
:100400001F93CF93DF93EC0188819981009759F076
:100410002A813B812617370730F081E0DF91CF91A9
:100420001F910F9108958B016F5F7F4F0E94E70C22
:10043000009759F0998388831B830A832C813D811F
:10044000232B59F7FC011082E8CF80E0E7CF0F9310
:100450001F93CF93DF93FC0101900020E9F73197C0
:10046000E81BF90BF9F08C01C091E502D091E6028E
:10047000CE0FDF1FBE0181EE92E00E94FF018823B4
:1004800091F02091E1023091E2028091E502909199
:10049000E602B801820F931F0E94AD0DD093E602D1
:1004A000C093E50281E0DF91CF911F910F910895F4
:1004B000FC0180819181009711F00C945E0C0895ED
:1004C000EF92FF920F931F93CF93DF93EC017B0189
:1004D000198218821B821A821D821C82FB010190E4
:1004E0000020E9F731978F01061B170BB8010E9416
:1004F000FF0128813981811113C02115310519F0BF
:10050000C9010E945E0C198218821D821C821B8206
:100510001A82DF91CF911F910F91FF90EF90089574
:100520001D830C83B701C901DF91CF911F910F91FA
:10053000FF90EF900C94AD0D2F923F924F925F92EF
:100540006F927F928F929F92AF92BF92CF92DF92E3
:10055000EF92FF920F931F93CF93DF93EC017B01F8
:1005600010E000E01C0189E0280E311C2E01EDE2B4
:100570004E0E511C6E01F4E2CF0ED11C3E018BE1F8
:10058000680E711C5E01E2E1AE0EB11CF7018481C0
:1005900095810817190708F0CEC1B801C7010E945C
:1005A000A200FC0180818535D9F4C1010E94600060
:1005B0002CA19DA18EA13B8D3CA33C8D3DA33D8DE7
:1005C0003EA35A894B893C892A8B9B8B8C8B2DA50A
:1005D0009EA58FA55DA74EA73FA72B8F9C8F8D8FC4
:1005E000B801C7010E94A200FC018081853711F586
:1005F00023E0822E912CC1010E9460002CA19DA1BC
:100600008EA13B8D3CA33C8D3DA33D8D3EA35A89DD
:100610004B893C892A8B9B8B8C8B2DA59EA58FA506
:100620005DA74EA73FA72B8F9C8F8D8FF1E08F1A70
:10063000910809F7B801C7010E94A200FC0180815E
:100640008434D9F4CE010E9460007AA52BA55CA564
:10065000A88D398DEA8D4BA99CA96DA9F9A18AA114
:10066000BBA1BDABAAA7FBABECA779A36A8F5BA329
:10067000488F3BA72AA3998F8CABB801C7010E9472
:10068000A200FC018081843609F5CE010E94600041
:10069000CE010E946000CE010E9460002AA59BA5A9
:1006A0008CA539A13AA73AA13BA73BA13CA7588DFD
:1006B000498D3A8D288F998F8A8F2BA99CA98DA956
:1006C0005BAB4CAB3DAB29A39AA38BA3B801C7018D
:1006D0000E94A200FC0180818235D9F4C2010E94EF
:1006E00060008B859E8529893D8D3B8738A13E879B
:1006F0003BA1398B3A894D89588D2A8B9D8B888FE8
:100700002A819D8188855A834D8338872D8F98A3B0
:100710008BA3B801C7010E94A200FC01808182372F
:1007200011F593E0892E912CC2010E9460008B8507
:100730009E8529893D8D3B8738A13E873BA1398B1A
:100740003A894D89588D2A8B9D8B888F2A819D816E
:1007500088855A834D8338872D8F98A38BA3F1E02A
:100760008F1A910809F7B801C7010E94A200FC0185
:1007700080818C34D9F4C6010E94600069855C8553
:100780004F85FC897F8998812B813E81EB8D8E8DF1
:10079000A9A1BA8DB987AE83FF87E8837C876B8F69
:1007A0005E8F49A33C8B2F8B9A8F8B83B801C70137
:1007B0000E94A200FC0180818C3609F5C6010E94CE
:1007C0006000C6010E946000C6010E946000898529
:1007D0009C852F853B8D39873E8D3C8739A13F878E
:1007E0003C894F895A8D2C8B9F8B8A8F28819B81C6
:1007F0008E8158834B833E832B8F9E8F89A3B801B4
:10080000C7010E94A200FC0180818634D9F4C30193
:100810000E9460008DA598A92BA93F853DA7388926
:1008200038AB39893BAB588149813A812883998318
:100830008A838EA199A52CA55EA349A73CA72F87E3
:10084000988B898BB801C7010E94A200FC018081AE
:10085000863611F583E0882E912CC3010E9460003A
:100860008DA598A92BA93F853DA7388938AB398933
:100870003BAB588149813A81288399838A838EA131
:1008800099A52CA55EA349A73CA72F87988B898B98
:10089000F1E08F1A910809F7B801C7010E94A20080
:1008A000FC0180818234D9F4C5010E946000EFA56B
:1008B0007AA96DA9FE81AF815CA14FA13AA5898576
:1008C0009A852B85B885BFA7AAABFDABE9877A8748
:1008D0006B875E834F8338872CA39FA38AA7B801B9
:1008E000C7010E94A200FC018081823609F5C50182
:1008F0000E946000C5010E946000C5010E94600066
:100900008FA59AA92DA939853FA73A853AAB3B8592
:100910003DAB5E814F8138852E839F8388878CA174
:100920009FA12AA55CA34FA33AA729879A878B8703
:100930000F5F1F4F2BCEDF91CF911F910F91FF9033
:10094000EF90DF90CF90BF90AF909F908F907F906F
:100950006F905F904F903F902F900895EF92FF928D
:100960000F931F93CF93DF93CDB7DEB7EC970FB6FE
:10097000F894DEBF0FBECDBF8C01CE0101960E9460
:10098000C10183E0E82EF12CF80181818737C1F4A1
:1009900082A1823709F0AAC288E191E00E94270271
:1009A00068E171E0CE01C7960E946002BE01695CF9
:1009B0007F4FC8010E949C02CE01C7960E94580238
:1009C000F80183818737C1F483A5873609F0A1C276
:1009D0008BE291E00E9427026BE271E0CE01C796A4
:1009E0000E946002BE01695C7F4FC8010E949C02A8
:1009F000CE01C7960E945802F80187818737C1F45B
:100A0000818D873609F098C28EE391E00E9427021B
:100A10006EE371E0CE01C7960E946002BE01695C80
:100A20007F4FC8010E949C02CE01C7960E945802C7
:100A3000F80185818737C1F484A9873609F08FC210
:100A400081E591E00E94270261E571E0CE01C79641
:100A50000E946002BE01695C7F4FC8010E949C0237
:100A6000CE01C7960E945802F801848D8737C1F4E1
:100A70008089873609F086C284E691E00E942702C9
:100A800064E671E0CE01C7960E946002BE01695C17
:100A90007F4FC8010E949C02CE01C7960E94580257
:100AA000F801868D8737C1F481A5873609F086C2A3
:100AB0008EE691E00E9427026EE671E0CE01C796B5
:100AC0000E946002BE01695C7F4FC8010E949C02C7
:100AD000CE01C7960E945802F80182A18737C1F45F
:100AE0008181873609F086C28EE691E00E94270256
:100AF0006EE671E0CE01C7960E946002BE01695C9D
:100B00007F4FC8010E949C02CE01C7960E945802E6
:100B1000F80180A18737C1F480A9873609F086C221
:100B20008CE791E00E9427026CE771E0CE01C79646
:100B30000E946002BE01695C7F4FC8010E949C0256
:100B4000CE01C7960E945802F80182858737C1F40A
:100B50008389873609F086C28AE891E00E942702DD
:100B60006AE871E0CE01C7960E946002BE01695C2E
:100B70007F4FC8010E949C02CE01C7960E94580276
:100B8000F80184858737C1F485A1873609F086C2CC
:100B90008FE891E00E9427026FE871E0CE01C796CE
:100BA0000E946002BE01695C7F4FC8010E949C02E6
:100BB000CE01C7960E945802F80180898737C1F498
:100BC000848D873609F086C283E891E00E9427026F
:100BD00063E871E0CE01C7960E946002BE01695CC5
:100BE0007F4FC8010E949C02CE01C7960E94580206
:100BF000F80186858737C1F486A5873609F086C255
:100C00008BE891E00E9427026BE871E0CE01C79665
:100C10000E946002BE01695C7F4FC8010E949C0275
:100C2000CE01C7960E945802F80185A18737C1F40A
:100C30008485873609F086C281EA91E00E94270206
:100C400061EA71E0CE01C7960E946002BE01695C54
:100C50007F4FC8010E949C02CE01C7960E94580295
:100C6000F80187A18737C1F48789873609F086C2E2
:100C700083EB91E00E94270263EB71E0CE01C796FF
:100C80000E946002BE01695C7F4FC8010E949C0205
:100C9000CE01C7960E945802F80183A58737C1F498
:100CA0008381873609F086C281EC91E00E94270299
:100CB00061EC71E0CE01C7960E946002BE01695CE2
:100CC0007F4FC8010E949C02CE01C7960E94580225
:100CD000F80181A58737C1F4868D873609F086C271
:100CE00085E591E00E94270265E571E0CE01C79697
:100CF0000E946002BE01695C7F4FC8010E949C0295
:100D0000CE01C7960E945802F80183898737C1F443
:100D10008285873609F086C287ED91E00E9427021E
:100D200067ED71E0CE01C7960E946002BE01695C6A
:100D30007F4FC8010E949C02CE01C7960E945802B4
:100D4000F80185898737C1F482A9873609F086C200
:100D500089EE91E00E94270269EE71E0CE01C7960C
:100D60000E946002BE01695C7F4FC8010E949C0224
:100D7000CE01C7960E945802F801818D8737C1F4D1
:100D80008781873609F086C287EF91E00E942702AB
:100D900067EF71E0CE01C7960E946002BE01695CF8
:100DA0007F4FC8010E949C02CE01C7960E94580244
:100DB000F80187898737C1F487A1873609F086C291
:100DC00087E092E00E94270267E072E0CE01C796BA
:100DD0000E946002BE01695C7F4FC8010E949C02B4
:100DE000CE01C7960E945802F80186A58737C1F444
:100DF0008685873609F086C288ED91E00E94270239
:100E000068ED71E0CE01C7960E946002BE01695C88
:100E10007F4FC8010E949C02CE01C7960E945802D3
:100E2000F80180A98737C1F480A1873609F086C20E
:100E300084E891E00E94270264E871E0CE01C79641
:100E40000E946002BE01695C7F4FC8010E949C0243
:100E5000CE01C7960E945802F80184A98737C1F4D1
:100E60008581873609F086C28DE192E00E942702D3
:100E70006DE172E0CE01C7960E946002BE01695C1E
:100E80007F4FC8010E949C02CE01C7960E94580263
:100E9000F80182A98737C1F48589873609F086C2AF
:100EA0008DE292E00E9427026DE272E0CE01C796C9
:100EB0000E946002BE01695C7F4FC8010E949C02D3
:100EC000CE01C7960E945802F1E0EF1AF10809F02E
:100ED0005BCDEC960FB6F894DEBF0FBECDBFDF91B1
:100EE000CF911F910F91FF90EF9008958F3639F4B5
:100EF0008EE191E00E9427026EE171E053CD8236CF
:100F000009F05ECD84E291E00E94270264E271E084
:100F100049CD8F3639F481E391E00E94270261E3E5
:100F200071E05CCD823609F067CD88E391E00E94E4
:100F3000270268E371E052CD8F3639F485E491E001
:100F40000E94270265E471E065CD823709F070CD1B
:100F50008BE491E00E9427026BE471E05BCD823765
:100F600039F487E591E00E94270267E571E06ECDD4
:100F7000823609F079CD8EE591E00E9427026EE578
:100F800071E064CD823739F48EE092E00E9427024E
:100F90006EE072E077CD8F3639F483E192E00E9403
:100FA000270263E172E06ECD823609F079CD89E6E1
:100FB00091E00E94270269E671E064CD823739F43E
:100FC00081EB91E00E94270261EB71E077CD8F36D3
:100FD00039F482E791E00E94270262E771E06ECD6A
:100FE000823609F079CD88E791E00E94270268E710
:100FF00071E064CD823739F481EB91E00E942702E1
:1010000061EB71E077CD8F3639F482E791E00E9491
:10101000270262E771E06ECD823609F079CD88E76C
:1010200091E00E94270268E771E064CD823739F4CD
:1010300080E891E00E94270260E871E077CD8F366A
:1010400039F487EE91E00E94270267EE71E06ECDE1
:10105000823609F079CD86E891E00E94270266E8A1
:1010600071E064CD823739F48DE491E00E9427026B
:101070006DE471E077CD8F3639F484E991E00E9418
:10108000270264E971E06ECD823609F079CD8EE9F0
:1010900091E00E9427026EE971E064CD823739F455
:1010A0008BE591E00E9427026BE571E077CD8F36EA
:1010B00039F483E991E00E94270263E971E06ECD83
:1010C000823609F079CD88E791E00E94270268E72F
:1010D00071E064CD823739F48AE591E00E942702FD
:1010E0006AE571E077CD8F3639F488E991E00E94A6
:1010F000270268E971E06ECD823609F079CD8CE97E
:1011000091E00E9427026CE971E064CD823739F4E6
:1011100089E591E00E94270269E571E077CD8F367D
:1011200039F485E991E00E94270265E971E06ECD0E
:10113000823609F079CD80E691E00E94270260E6D0
:1011400071E064CD823739F485EA91E00E9427028C
:1011500065EA71E077CD8F3639F48AEA91E00E9432
:1011600027026AEA71E06ECD823609F079CD8FEA06
:1011700091E00E9427026FEA71E064CD823739F472
:1011800089EB91E00E94270269EB71E077CD8F3601
:1011900039F48DEB91E00E9427026DEB71E06ECD8A
:1011A000823609F079CD8FEC91E00E9427026FEC36
:1011B00071E064CD823739F484EC91E00E9427021B
:1011C00064EC71E077CD8F3639F489EC91E00E94C0
:1011D000270269EC71E06ECD823609F079CD8EEC94
:1011E00091E00E9427026EEC71E064CD823739F401
:1011F00085EC91E00E94270265EC71E077CD8F3697
:1012000039F48AEC91E00E9427026AEC71E06ECD1D
:10121000823609F079CD81ED91E00E94270261EDDF
:1012200071E064CD823739F48CED91E00E942702A1
:101230006CED71E077CD8F3639F480EE91E00E944D
:10124000270260EE71E06ECD823609F079CD84EE32
:1012500091E00E94270264EE71E064CD823739F498
:101260008FEE91E00E9427026FEE71E077CD8F360E
:1012700039F480E092E00E94270260E072E06ECDD7
:10128000823609F079CD83EF91E00E94270263EF67
:1012900071E064CD823739F48CEF91E00E9427022F
:1012A0006CEF71E077CD8F3639F48FEF91E00E94CB
:1012B00027026FEF71E06ECD823609F079CD82E0C2
:1012C00092E00E94270262E072E064CD823739F436
:1012D0008DEF91E00E9427026DEF71E077CD8F36A0
:1012E00039F48DEB91E00E9427026DEB71E06ECD39
:1012F000823609F079CD83E092E00E94270263E014
:1013000072E064CD823739F48DE092E00E942702CA
:101310006DE072E077CD8F3639F482E192E00E9481
:10132000270262E172E06ECD823609F079CD85EE5A
:1013300091E00E94270265EE71E064CD823739F4B6
:1013400081E292E00E94270261E272E077CD8F365F
:1013500039F486E292E00E94270266E272E06ECDE6
:10136000823609F079CD87E192E00E94270267E199
:1013700072E064CD823739F480E292E00E94270265
:1013800060E272E077CD8F3639F485E292E00E9418
:10139000270265E272E06ECD823609F079CD8AE2ED
:1013A00092E00E9427026AE272E064CD823739F44B
:1013B0008FEE91E00E9427026FEE71E077CD8F36BD
:1013C00039F481E392E00E94270261E372E06ECD7E
:1013D000823609F079CD8FE991E00E9427026FE90A
:1013E00071E064CD1F920F920FB60F9211242F93CC
:1013F0003F938F939F93AF93BF93809140029091BF
:101400004102A0914202B091430230913F0223E099
:10141000230F2D3758F50196A11DB11D20933F02D2
:101420008093400290934102A0934202B093430202
:1014300080913B0290913C02A0913D02B0913E020E
:101440000196A11DB11D80933B0290933C02A09395
:101450003D02B0933E02BF91AF919F918F913F911A
:101460002F910F900FBE0F901F90189526E8230F15
:101470000296A11DB11DD2CF1F920F920FB60F92EF
:1014800011242F933F934F935F936F937F938F9389
:101490009F93AF93BF93EF93FF9384E492E00E94F6
:1014A0003201FF91EF91BF91AF919F918F917F9109
:1014B0006F915F914F913F912F910F900FBE0F90C1
:1014C0001F9018951F920F920FB60F9211242F9311
:1014D0008F939F93EF93FF93E0915402F091550205
:1014E0008081E0915A02F0915B0282FD1BC09081E5
:1014F00080915D028F5F8F7320915E02821741F0B1
:10150000E0915D02F0E0EC5BFD4F958F80935D0212
:10151000FF91EF919F918F912F910F900FBE0F90A0
:101520001F9018958081F4CFE4E4F2E013821282D8
:1015300088EE93E0A0E0B0E084839583A683B78330
:101540008AE091E09183808385EC90E095878487A1
:1015500084EC90E09787868780EC90E0918B808B7D
:1015600081EC90E0938B828B82EC90E0958B848B66
:1015700086EC90E0978B868B118E128E138E148ED4
:1015800069E372E081EE92E00C946002CF93DF9306
:10159000CDB7DEB7EC970FB6F894DEBF0FBECDBF68
:1015A000789484B5826084BD84B5816084BD85B53E
:1015B000826085BD85B5816085BD80916E0081604A
:1015C00080936E00109281008091810082608093F0
:1015D00081008091810081608093810080918000F2
:1015E0008160809380008091B10084608093B1001D
:1015F0008091B00081608093B00080917A00846017
:1016000080937A0080917A00826080937A00809142
:101610007A00816080937A0080917A00806880935C
:101620007A001092C100E0915402F091550282E0DC
:101630008083E0915002F09151021082E0915202B9
:10164000F09153028FEC808310925C02E09158027B
:10165000F091590286E08083E0915602F0915702A2
:10166000808180618083E0915602F09157028081F1
:1016700088608083E0915602F091570280818068F3
:101680008083E0915602F091570280818F7D8083A4
:10169000CE0101960E94C10165E372E0CE01C796BA
:1016A0000E946002BE01695C7F4FCE0101960E94DC
:1016B0009C02CE01C7960E945802CE0101960E945C
:1016C000AE0400E010E04091E5025091E602609126
:1016D000E1027091E20284E492E00E94B40042E0F0
:1016E00050E067E372E084E492E00E94B4000115E8
:1016F000110549F30E941E01882329F30E9400006E
:10170000E2CF81EE92E00C9458022F923F924F92DA
:101710005F926F927F928F929F92AF92BF92CF9281
:10172000DF92EF92FF920F931F93CF93DF93CDB78A
:10173000DEB7CA1BDB0B0FB6F894DEBF0FBECDBF02
:1017400009942A88398848885F846E847D848C84D3
:101750009B84AA84B984C884DF80EE80FD800C81DC
:101760001B81AA81B981CE0FD11D0FB6F894DEBFBF
:101770000FBECDBFED010895EE0FFF1F0590F49150
:10178000E02D09940F931F93CF93DF93823091053F
:1017900010F482E090E0E091E902F091EA0230E09A
:1017A00020E0B0E0A0E0309799F42115310509F46C
:1017B0004AC0281B390B24303105D8F58A819B811A
:1017C0006115710589F1FB0193838283FE0111C0CC
:1017D000408151810281138148175907E0F0481771
:1017E000590799F4109761F012960C93129713967B
:1017F0001C933296CF01DF91CF911F910F910895E5
:101800000093E9021093EA02F4CF2115310551F05B
:101810004217530738F0A901DB019A01BD01DF012E
:10182000F801C1CFEF01F9CF9093EA028093E9026A
:10183000CDCFFE01E20FF31F819391932250310926
:1018400039832883D7CF2091E7023091E802232BF8
:1018500041F420910201309103013093E80220937A
:10186000E70220910001309101012115310541F479
:101870002DB73EB74091040150910501241B350B53
:10188000E091E702F091E802E217F307A0F42E1BC3
:101890003F0B2817390778F0AC014E5F5F4F2417D4
:1018A000350748F04E0F5F1F5093E8024093E70260
:1018B000819391939FCFF0E0E0E09CCFCF93DF93B3
:1018C0000097E9F0FC01329713821282A091E9029D
:1018D000B091EA02ED0130E020E01097A1F4208100
:1018E0003181820F931F2091E7023091E80228177F
:1018F000390709F061C0F093E802E093E702DF9155
:10190000CF910895EA01CE17DF07E8F54A815B81A0
:101910009E0141155105B1F7E901FB83EA83499125
:101920005991C40FD51FEC17FD0761F48081918197
:101930000296840F951FE9019983888382819381A0
:101940009B838A83F0E0E0E012968D919C9113973F
:101950000097B9F52D913C911197CD010296820F18
:10196000931F2091E7023091E8022817390739F6D2
:10197000309751F51092EA021092E902B093E80212
:10198000A093E702BCCFD383C28340815181840FEF
:10199000951FC817D90761F44E5F5F4F8881998101
:1019A000480F591F518340838A819B81938382838F
:1019B0002115310509F0B0CFF093EA02E093E90276
:1019C0009ECFFD01DC01C0CF13821282D7CFB0E0E1
:1019D000A0E0EDEEFCE00C94870B8C01009751F435
:1019E000CB010E94C20B8C01C801CDB7DEB7E0E18C
:1019F0000C94A30BFC01E60FF71F9C012250310948
:101A0000E217F30708F49DC0D901CD91DC9111973D
:101A1000C617D70798F0C530D10530F3CE0104972B
:101A20008617970708F3C61BD70B2297C193D1934C
:101A30006D937C93CF010E945E0CD6CF5B01AC1AF4
:101A4000BD0A4C018C0E9D1EA091E902B091EA02E4
:101A5000512C412CF12CE12C109731F58091E702AB
:101A60009091E8028815990509F05CC04616570662
:101A700008F058C08091000190910101009741F455
:101A80008DB79EB74091040150910501841B950BC1
:101A9000E817F90708F055C0F093E802E093E70271
:101AA000F90171836083A0CF8D919C91119712965B
:101AB0006C90129713967C901397A815B90559F559
:101AC0006C0142E0C40ED11CCA14DB0420F1AC014D
:101AD0004A195B09DA011296159780F062827382C7
:101AE00051834083D9016D937C93E114F10471F02B
:101AF000D7011396FC93EE93129776CF22968C0F14
:101B00009D1FF90191838083F301EFCFF093EA02E7
:101B1000E093E90269CF4816590608F42C017D01CB
:101B2000D3019ACFCB010E94C20B7C01009749F0F0
:101B3000AE01B8010E94A40DC8010E945E0C87018D
:101B400053CF10E000E050CFFB01DC0102C0019058
:101B50000D9241505040D8F70895FB01DC010190EF
:101B60000D920020E1F7089510E0C5E3D0E004C035
:101B7000FE010E94BC0B2196C633D107C9F7F89429
:021B8000FFCF95
:101B82000000EB028000000000005401B400E100FC
:101B9200A1011201F00004016666556C6C006666D4
:101BA20075727200666675756262006C6C75666647
:101BB200006C6C75757272006C6C556262006262C8
:101BC20075756666006262557272006262756C6C4F
:101BD20000727255666600727255556C6C007272B4
:101BE2007562620075724652007552627200644CF0
:101BF2004400464672464600444C64004472640007
:101C020046464C46460064724400555546460075A9
:101C12004646005555525200755252005555626261
:101C2200004C666C0075664C460075467266006C28
:101C3200424C00646442646400644244004442646E
:101C4200006C66006C446664006C646644004C423E
:101C5200006464666464005572465200426C62001D
:101C620062524200555262720064646264640064AB
:101C72006244006452440062646C4400626C00423C
:101C8200520062446C64006C6C666C6C0055664C6D
:101C9200460055467266006464466464005246001B
:101CA20052444664005264464400726200445264E4
:0A1CB200004462640055000D0A00B2
:00000001FF
